S02B0000433A2F55736572732F43616D65726F6E2F4465736B746F702F656365323433206C6162732F6C616204
S11300003400C0050424C0BD34004005044440ADA0
S113001034008005043A80B5440080104400C09C3C
S1130020170000BD5700C0BD160A00A00E0000A0B6
S1130030150000AD4400801034C83F04040000845F
S1130040370040844400408C35004084260AC005B3
S113005006F23F00150000B54400C01834C83F0440
S113006004000084370040844400408C3500408400
S10F00702601C00506E93F0006FF3F0022
S113007C0100FFFFFEFF02000000FDFF64009CFF77
S113008C0F0001020100000098000000FFFFFFFFB9
S113009CA0000000FEFFFFFFB800000002000000FB
S11300ACA000000000000000E0000000FDFFFFFFC6
S11300BCC000000064000000D80000009CFFFFFF9B
S11300CCB00000009CFF0000C80000000F000000FE
S11300DCD000000001020304000000000000000036
S11300EC0000000000000000000000000000000000
S11300FC00000000000000000000000000000000F0
S113010C00000000000000000000000000000000DF
S113011C00000000000000000000000000000000CF
S10F012C000000000000000000000000C3
S9030000FC
